:0200000470008A
:10000000464346420004015600000000010303007D
:1000100000000000000000000000000000000000E0
:1000200000000000000000000000000000000000D0
:1000300000000000000000000000000000000000C0
:100040001000000001040700000000000000000094
:100050000000400000000000000000000000000060
:100060000000000000000000000000000000000090
:100070000000000000000000000000000000000080
:10008000EB04180A063204260000000000000000FD
:10009000050404240000000000000000000000002F
:1000A0000000000000000000000000000000000050
:1000B0000604000000000000000000000000000036
:1000C0000000000000000000000000000000000030
:1000D00020041808000000000000000000000000DC
:1000E0000000000000000000000000000000000010
:1000F0000000000000000000000000000000000000
:10010000D8041808000000000000000000000000F3
:100110000204180804200000000000000000000095
:1001200000000000000000000000000000000000CF
:10013000600400000000000000000000000000005B
:1001400000000000000000000000000000000000AF
:10015000000000000000000000000000000000009F
:10016000000000000000000000000000000000008F
:10017000000000000000000000000000000000007F
:10018000000000000000000000000000000000006F
:10019000000000000000000000000000000000005F
:1001A000000000000000000000000000000000004F
:1001B000000000000000000000000000000000003F
:1001C000000100000010000001000000000000001D
:1001D000000001000000000000000000000000001E
:1001E000000000000000000000000000000000000F
:1001F00000000000000000000000000000000000FF
:1002000000000000000000000000000000000000EE
:1002100000000000000000000000000000000000DE
:10100000D10020410020007000000000301000706E
:1010100020100070001000700000000000000000B0
:10102000000000700000400000000000FFFFFFFF14
:10103000D2041041CC038C04400FC068FFFFFFFFB7
:10104000400FC06CFFFFFFFF400FC070FFFFFFFFAE
:10105000400FC074FFFFFFFF400FC078FFFFFFFF8E
:10106000400FC07CFFFFFFFF400FC080FFFFFFFF6E
:10107000400D803000002001400D8100101D101B2C
:10108000400FC01400010D40401F801400000000FC
:10109000401F801800000000401F801C000000005E
:1010A000401F802000000000401F8024000000003E
:1010B000401F802800000000401F802C000000001E
:1010C000401F803000000000401F803400000000FE
:1010D000401F803800000000401F803C00000000DE
:1010E000401F804000000000401F804400000000BE
:1010F000401F804800000000401F804C000000009E
:10110000401F805000000000401F8054000000007D
:10111000401F805800000000401F805C000000005D
:10112000401F806000000000401F8064000000003D
:10113000401F806800000000401F806C000000001D
:10114000401F807000000000401F807400000000FD
:10115000401F807800000000401F807C00000000DD
:10116000401F808000000000401F808400000000BD
:10117000401F808800000000401F808C000000009D
:10118000401F809000000000401F8094000000007D
:10119000401F809800000000401F809C000000005D
:1011A000401F80A000000000401F80A4000000003D
:1011B000401F80A800000000401F80AC000000001D
:1011C000401F80B000000010401F8204000110F991
:1011D000401F8208000110F9401F820C000110F925
:1011E000401F8210000110F9401F8214000110F905
:1011F000401F8218000110F9401F821C000110F9E5
:10120000401F8220000110F9401F8224000110F9C4
:10121000401F8228000110F9401F822C000110F9A4
:10122000401F8230000110F9401F8234000110F984
:10123000401F8238000110F9401F823C000110F964
:10124000401F8240000110F9401F8244000110F944
:10125000401F8248000110F9401F824C000110F924
:10126000401F8250000110F9401F8254000110F904
:10127000401F8258000110F9401F825C000110F9E4
:10128000401F8260000110F9401F8264000110F9C4
:10129000401F8268000110F9401F826C000110F9A4
:1012A000401F8270000110F9401F8274000110F984
:1012B000401F8278000110F9401F827C000110F964
:1012C000401F8280000110F9401F8284000110F944
:1012D000401F8288000110F9401F828C000110F924
:1012E000401F8290000110F9401F8294000110F904
:1012F000401F8298000110F9401F829C000110F9E4
:10130000401F82A0000110F9402F000010000004CF
:10131000402F000800000081402F000C00000081D9
:10132000402F00108000001B402F00148200001B83
:10133000402F00188400001B402F001C8600001B5B
:10134000402F002090000021402F0024A000001911
:10135000402F0028A8000017402F002CA900001BD8
:10136000402F003000000021402F0004000079A829
:10137000402F004000000F31402F0044006529221B
:10138000402F004800010920402F004C50210A083E
:10139000402F008000000021402F008400888888B2
:1013A000402F009400000002402F00980000000031
:1013B000402F009080000000402F009CA55A000F95
:1013C000CF000C1C402F003C00000001CC00140496
:1013D000402F009080000000402F009CA55A000C78
:1013E000CF000C1C402F003C00000001CC00140476
:1013F000402F009080000000402F009CA55A000C58
:10140000CF000C1C402F003C00000001CC001C044D
:10141000402F00A000000033402F0090800000000B
:10142000402F009CA55A000ACF000C1C402F003C06
:1014300000000001CC000C04402F004C50210A0990
:10144000000000000000000000000000000000009C
:10145000000000000000000000000000000000008C
:10146000000000000000000000000000000000007C
:10147000000000000000000000000000000000006C
:102000000000072015240070598500804161008080
:10201000F9840080D117008099B000800000000092
:10202000000000000000000000000000C9A50080C2
:10203000714C008000000000599D008091240070C8
:1020400095240070992400709D240070A1240070D4
:10205000A5240070A9240070AD240070B124007084
:10206000B5240070B9240070BD240070C124007034
:10207000C5240070C9240070CD240070D1240070E4
:10208000D52400707D2400707D2400707D240070B4
:10209000D97700803178008089780080E1780080ED
:1020A00041790080A1790080F1240070217A0080BC
:1020B000F9240070FD2400700125007005250070D2
:1020C000092500700D250070112500701525007080
:1020D000192500701D2500707D2400707D2400707E
:1020E0007D2400707D2400707D240070812F00808D
:1020F0007D2400707D2400707D2400707D2400709C
:102100007D2400707D2400707D2400707D2400708B
:102110007D2400707D2400707D2400707D2400707B
:102120002125007025250070292500702D250070BF
:10213000312500707D2400707D2400707D240070A6
:102140007D2400707D2400707D2400707D2400704B
:102150007D2400707D2400707D2400707D2400703B
:102160007D2400707D2400707D2400707D2400702B
:102170007D2400707D2400707D2400707D2400701B
:1021800079590080A9590080E9590080215A0080BE
:10219000615A00807D2400707D2400707D240070D1
:1021A0007D2400707D240070352500703925007075
:1021B0007D2400707D2400707D2400707D240070DB
:1021C0007D2400707D2400707D2400707D240070CB
:1021D0007D2400707D2400707D2400707D240070BB
:1021E0007D2400707D2400707D2400703D250070EA
:1021F000412500707D240070452500704925007040
:1022000031B0008019B000804D250070512500705C
:102210007D2400707D2400707D2400707D2400707A
:102220007D2400707D240070298E00807D24007044
:102230007D2400707D2400707D2400707D2400705A
:102240007D2400707D2400707D2400707D2400704A
:102250007D2400707D2400707D2400707D2400703A
:102260007D2400707D2400707D2400707D2400702A
:102270007D2400707D2400707D2400707D2400701A
:102280007D2400707D2400707D2400707D2400700A
:102290007D2400707D2400707D2400707D240070FA
:1022A00055250070592500705D2500707D24007053
:1022B000612500707D2400707D2400707D240070F5
:1022C0007D2400707D2400707D2400707D240070CA
:1022D0007D2400707D2400707D2400707D240070BA
:1022E0007D2400707D2400707D2400707D240070AA
:1022F0007D2400707D2400707D2400707D2400709A
:102300007D2400707D2400707D2400707D24007089
:102310007D2400707D2400707D2400707D24007079
:102320007D2400707D2400707D2400707D24007069
:102330007D2400707D2400707D2400707D24007059
:102340007D2400707D2400707D2400707D24007049
:102350007D2400707D2400707D2400707D24007039
:102360007D2400707D2400707D2400707D24007029
:102370007D2400707D2400707D2400707D24007019
:102380007D2400707D2400707D2400707D24007009
:102390007D2400707D2400707D2400707D240070F9
:1023A0007D2400707D2400707D2400707D240070E9
:1023B0007D2400707D2400707D2400707D240070D9
:1023C0007D2400707D2400707D2400707D240070C9
:1023D0007D2400707D2400707D2400707D240070B9
:1023E0007D2400707D2400707D2400707D240070A9
:1023F0007D2400707D2400707D240070FFFFFFFFAE
:10240000DFF80CD000F020F900480047D1E400804C
:10241000000007201148124901601248016841F08C
:102420000401016010480168C0F200014FF007028A
:102430004FF00A034FEA02424FEA035342EA030114
:10244000016072B609480A4901600A6882F3088887
:102450000848804762B60848004700BF44C00A40A9
:10246000AFAAAAAA40C00A4038C00A4008ED00E05E
:10247000002000707126007001240070FFF7FEBF7D
:102480003848004738480047384800473848004730
:102490003848004738480047384800473848004720
:1024A0003848004738480047384800473848004710
:1024B0003848004738480047384800473848004700
:1024C00038480047384800473848004738480047F0
:1024D00038480047384800473848004738480047E0
:1024E00038480047384800473848004738480047D0
:1024F00038480047384800473848004738480047C0
:1025000038480047384800473848004738480047AF
:10251000384800473848004738480047384800479F
:10252000384800473848004738480047384800478F
:10253000384800473848004738480047384800477F
:10254000384800473848004738480047384800476F
:10255000384800473848004738480047384800475F
:10256000384800475985008041610080C9A5008036
:10257000599D00809124007081370080E9390080E6
:10258000413A0080993A0080F13A0080493B00804E
:10259000A13B0080F93B0080513C0080A93C0080B9
:1025A000D93700803138008089380080E1380080D8
:1025B00039390080913900807D240070B177008026
:1025C0000978008061780080B978008019790080EE
:1025D00079790080D1790080F9790080F9640080F0
:1025E000096500802165008039650080D165008023
:1025F0001966008061660080A9660080D917008096
:102600002918008009A30080A1A3008039A40080BC
:1026100089A4008049A500802152008029520080B1
:102620007D2400707D24007049B0008071B000806E
:1026300041500080094F0080F14E0080D94E00804B
:102640007918008031520080064C074D06E0E068A2
:1026500040F0010394E8070098471034AC42F6D3E9
:10266000FFF7D2FE382800706828007000000000D4
:1026700080B584B04EF68851CEF20001086840F46F
:10268000700008604FF4806001904FF000400390AC
:1026900042F20000C7F2000002900198800800900A
:1026A000FFE70098411E009140B1FFE70298009AB1
:1026B00050F82200039941F82200F2E703984EF601
:1026C0000851CEF20001086048F20801C4F20B0183
:1026D000088820F0010008800821C4F20D01088854
:1026E00020F00100088048F20000C4F20B000088CE
:1026F0004007002809D5FFE748F20001C4F20B01AA
:10270000088820F004000880FFE70020C4F20D00D4
:1027100000884007002808D5FFE70021C4F20D011A
:10272000088820F004000880FFE74CF20000C4F2A3
:102730000B000068800400280AD5FFE74CF2040172
:10274000C4F20B014CF22050CDF6281008600AE0CC
:102750004CF20401C4F20B014CF2205008604DF61B
:1027600028100860FFE74CF20801C4F20B014FF695
:10277000FF7008604CF20001C4F20B01086840F0E1
:10278000200020F0800008604EF21000CEF2000021
:102790000068C00748B1FFE74EF21001CEF2000119
:1027A000086820F001000860FFE74EF61450CEF2F2
:1027B0000000006800F40030B0F5003F26D0FFE7CD
:1027C0004EF61450CEF2000000688003002801D5B8
:1027D000FFE71AE0BFF34F8FBFF36F8F4EF65071D4
:1027E000CEF2000100200860BFF34F8FBFF36F8F60
:1027F0004EF61451CEF20001086840F40030086033
:10280000BFF34F8FBFF36F8FFFE7FFE700F004F8D0
:1028100004B080BD00000000704702E008C8121F2D
:1028200008C1002AFAD170477047002001E001C1B9
:10283000121F002AFBD17047682800700004008036
:10284000D84501001A280070406E01700000002079
:1028500080010000260A0080406F01708001002086
:10286000E03F01002A2800702DE9F05F05460020B6
:1028700092469B4688460646814640241BE02846F1
:1028800041464746224600F0B4F853465A46C01A1D
:10289000914110D311461846224600F09BF82D1A9C
:1028A00067EB01084F4622460120002100F092F814
:1028B00017EB00094E41201EA4F10104DFDC48465D
:1028C00031462A464346BDE8F09F2DE9F0410024F9
:1028D000061B254671F1000605DA01240027D0EB1E
:1028E000070067EB0101161E73F1000605DA0027E9
:1028F000D2EB0702012567EB0303FFF7B5FF86461E
:102900000E4617469C46AC4204D00025D0EB050E7F
:1029100065EB010624B10020D2EB000760EB030C4D
:10292000704631463A466346BDE8F081002800DA39
:102930004042704740EA01039B0703D009E008C901
:10294000121F08C0042AFAD203E011F8013B00F874
:10295000013B521EF9D27047D2B201E000F8012BC0
:10296000491EFBD270470022F6E710B513460A460F
:1029700004461946FFF7F0FF204610BD421C10F830
:10298000011B0029FBD1801A704730B50546002095
:10299000034600E05B1C934205D2EC5CC85C201A45
:1029A00001D1002CF6D130BD30B50B4601460020D8
:1029B0002022012409E021FA02F59D4205D303FA01
:1029C00002F5491B04FA02F52844151EA2F1010282
:1029D000F1DC30BD202A04DB203A00FA02F10020AD
:1029E00070479140C2F1200320FA03F3194390404D
:1029F0007047202A04DB203A21FA02F000217047B8
:102A000021FA02F3D040C2F1200291400843194656
:102A100070472DE9FE4F804681EA0300C00F0C4647
:102A2000009021F0004123F00045B8EB0200A941DD
:102A300005D24046214690461C460B46024623F0EE
:102A40000040104347D0270DC7F30A00C3F30A51D3
:102A50000290401A019040286BDAC3F3130040F44F
:102A6000801B0098924620B10023D2EB030A63EB4F
:102A70000B0B01985946C0F140025046FFF7AAFFE0
:102A800006460D4650465946019A00F091F910EB62
:102A900008006141002487EA115284EAE7731A436F
:102AA00040D0009A62B3019A012A4FEA075215DC1E
:102AB000001B61EB02014FF0004202EA0752CDE930
:102AC0000042001C41F5801132462B4600F091F97E
:102AD00003B0BDE8F08F40462146F9E7001B61EBEB
:102AE0000201001C41F5801300185B412018A2F57B
:102AF000001747EB030140EAD570B6196D4111E0AC
:102B00006D084FEA360645EAC0754FEA0752001BCA
:102B100061EB0201001C41F5801149084FEA3000C9
:102B20000019514132462B4603B0BDE8F04F00F08A
:102B300051B90098012240000023D0EB020263EB60
:102B4000E073009821464FEAE074B8EB000061EBB7
:102B50000401E9E783F000435BE781F0004158E7B7
:102B60002DE9FE4F81EA030404F0004421F0004106
:102B700000944FF0000B23F0004350EA01045ED0B4
:102B800052EA03045BD0C3F30A54C1F30A552C4440
:102B9000A4F2F3340194A0FB0254C1F3130141F4F5
:102BA0008011C3F3130343F4801301FB024400FBC1
:102BB000034E840A970A44EA815447EA8357A4FBE8
:102BC000076802958D0A05FB07854FEA932C04FBE5
:102BD0000C542705029D4FEA065847EA1637B5EB15
:102BE00008056EEB070C870E920E47EA811742EA42
:102BF0008312A7FB0201B6EB0B0164EB00042B0D63
:102C000043EA0C335E1844EB1C50DA465146E7FBAE
:102C10000201C5F313044FEA0B3343EA14534FEA9E
:102C20000432019C43EA0603A4F10C040294009CC4
:102C3000CDE900B400F0DDF803B0BDE8F08F00206E
:102C40000146F9E72DE9F04D81EA030404F0004B59
:102C500021F0004514464FF0000A23F0004150EAED
:102C6000050220D054EA01021DD0C5F30A570246DE
:102C7000C5F31303C1F31300C1F30A5640F48015E2
:102C800043F48013A7EB0608101BD64608F2FD3864
:102C900073EB050002D308F1010801E092185B41D3
:102CA000B8F1000F03DA00200146BDE8F08D0020E6
:102CB0004FF48011064684460EE0171B73EB0507A0
:102CC00005D3121B63EB050306434CEA010C4908CC
:102CD0004FEA300092185B4150EA0107EDD152EA09
:102CE000030012D082EA040083EA0501084305D0FC
:102CF000101BAB4106D20122002306E000224FF058
:102D0000004302E06FF0010253101AEB06004CEB97
:102D1000085110EB0A0041EB0B01BDE8F04D00F04B
:102D200059B870B521F0004303430CD0C1F30A55E4
:102D30000024D5EB040564EB0403D617AD1AB341A8
:102D400002DB0020014670BD201841EB025170BD2E
:102D5000C1F30A52C1F3130140F2FF3341F4801171
:102D60009A4202DA00200146704740F233439A4209
:102D7000A2F2334202DC5242FFF73BBEFFF72ABE0B
:102D800030B5041E71F1000404DB4FF000444042F2
:102D900064EB0101141E73F1000405DB1C464FF0C7
:102DA0000043524263EB0403994208BF904230BD96
:102DB000202A06DBCB17203A41FA02F043EAE073FF
:102DC00006E041FA02F3D040C2F1200291400843EC
:102DD0001946704710B5141E73F1000408DA401C40
:102DE00041F1000192185B411A4301D120F001002A
:102DF00010BD2DE9F04D92469B4611B1B1FA81F21A
:102E000002E0B0FA80F220329046FFF7E3FD04467C
:102E10000F4640EA0A0041EA0B0153465A4608436E
:102E200013D0114653EA010019D0C8F140025046B0
:102E3000FFF7DFFD05460E46504659464246FFF76E
:102E4000C9FD084305D0012004E020463946BDE80D
:102E5000F08D0020054346EAE0762C4337430A987C
:102E60006305E40AA0EB08000022FD0A44EA475487
:102E70000A3002D500200146E9E701051019694131
:102E8000DDE9084500196941BDE8F04DA2E770B5DC
:102E90008C1810F8015B15F0070301D110F8013B05
:102EA0002A1106D110F8012B03E010F8016B01F88C
:102EB000016B5B1EF9D12B0705D40023521E0DD4E4
:102EC00001F8013BFAE710F8013BCB1A921C03E032
:102ED00013F8015B01F8015B521EF9D5A142D8D36A
:102EE000002070BD00000000BFF35F8F4EF624513C
:102EF000CEF20001086820F4803008604EF694514C
:102F0000CEF20001086820F0010008607047000060
:102F100081B00090009840F001004EF69451CEF23E
:102F2000000108604EF62451CEF20001086840F41A
:102F300080300860BFF34F8FBFF36F8F01B07047D1
:102F400080B58AB04FF4004002F012F948F2C02177
:102F5000C4F20D01086840F480300860086820F46D
:102F60000030086043F20060C0F26E1002F00CF90D
:102F7000002001F0B9FE01F0FBFE0120099002F0F3
:102F80000FF909994CF20002C4F20F0210687F2376
:102F900063F30700106046F61840C8F2000002F024
:102FA0007FF8099943F61410C1F2004002F078F856
:102FB0000C21C4F208010868132262F304000860BF
:102FC000FFE70020C4F20800006800F00040B0F104
:102FD000004F01D0FFE7F4E743F25060C8F2010070
:102FE00001F04EFE01F078F848F20000C4F20D0046
:102FF00002900D21C0F270010122079202F098F8B0
:1030000048F27011C4F20D010191086820F40040EB
:103010000860086820F40000086048F27001C4F2FB
:103020000D01086840F40050086001F06DF8019A45
:1030300048F2A001C4F20D01086840F48030086035
:10304000106820F040401060086840F400500860AC
:1030500001F04AF80298079A0D21C0F2E00102F04F
:1030600067F8079A48F2E001C4F20D01086862F3BC
:1030700001000860086840F400500860086820F00B
:103080000C000860086840F480100860086840F48C
:103090000010086001F030F80298079A0D21C0F284
:1030A000200102F045F848F22001C4F20D01086841
:1030B00040F4005008604EF61420C0F20040002199
:1030C000069101F015FF4FF4887001F061F84FF49C
:1030D000847001F05DF840F2162001F059F84FF4C9
:1030E000067001F055F846F61400C8F200000321FE
:1030F000059101F0FDFE07994EF21000C4F20000A8
:1031000001F0F6FE059947F21820C8F2000001F020
:10311000C7FF069943F61410C1F2004001F0C0FF4A
:1031200006994FF61430C8F2000001F0E1FE06994E
:1031300046F61840C8F2000001F0B2FF4FF48A7062
:1031400001F026F84FF48B7001F022F8182001F0FE
:103150001FF81A2001F01CF84FF4867001F018F8DF
:1031600007994EF21C00C8F2070001F0C1FE069953
:1031700042F21C60C8F2000001F092FF40F20260CF
:1031800001F006F807994EF62430C8F2000001F06D
:10319000AFFE069943F21C00C8F2000001F080FF68
:1031A00040F2046000F0F4FF07994FF22400C8F2E7
:1031B000000001F09DFE069943F21C10C8F20000C9
:1031C00001F06EFF40F20A6000F0E2FF06994FF254
:1031D0001C70C8F2000001F08BFE059947F61C50E8
:1031E000C8F2000001F05CFF40F2022000F0D0FFC6
:1031F00007994EF63C30C8F2000001F079FE0699BE
:1032000046F63C10C8F2000001F04AFF4FF480700F
:1032100000F0BEFF4FF4817000F0BAFF4FF48270EF
:1032200000F0B6FF4FF4837000F0B2FF4FF61820A5
:10323000C8F20000042101F05BFE46F21840C8F21B
:1032400000000221039101F02BFF162000F0A0FFE7
:10325000039947F62410C8F2000001F049FE0399D3
:1032600046F61860C8F2000001F01AFF40F2125052
:1032700000F08EFF05994EF22860C8F2000001F0C0
:1032800037FE07994EF22800C8F2070001F030FE21
:10329000069946F61C20C8F2000001F001FF40F23A
:1032A000145000F075FF05994EF22C60C8F2000032
:1032B00001F01EFE07994EF22C00C8F2070001F043
:1032C00017FE069946F61C40C8F2000001F0E8FE21
:1032D00040F2165000F05CFF05994FF22860C8F2EA
:1032E000000001F005FE07994FF22800C8F2070020
:1032F00001F0FEFD069946F61C60C8F2000001F0E0
:10330000CFFE40F2062000F043FF4FF4027000F0C1
:103310003FFF40F20A2000F03BFF06994FF23830A1
:10332000C8F2070001F0E4FD069943F23820C8F224
:10333000000001F0B5FE0E2000F02AFF12200890D8
:1033400000F026FF40F2067000F022FF102000F08F
:103350001FFF142000F01CFF4FF4E16000F018FF85
:1033600007994EF22020C8F2070001F0C1FD039931
:1033700046F62000C8F2000001F092FE4FF4A36070
:1033800000F006FF1C2000F003FF0C2000F000FFFF
:103390004FF48C7000F0FCFE40F2023000F0F8FEBA
:1033A00040F2063000F0F4FE40F21A5000F0F0FE59
:1033B00040F20E6000F0ECFE06994EF22400C8F2D6
:1033C000070001F095FD069942F22460C8F2000062
:1033D00001F066FE40F20A3000F0DAFE07994EF680
:1033E0003840C8F2000001F083FD05994FF21870D3
:1033F000C8F2000001F07CFD4EF63870C8F2000003
:10340000052101F04DFE40F20E5000F0C1FE07997B
:103410004FF63010C8F2000001F06AFD4FF2306044
:10342000C8F200000721049101F062FD059947F2FE
:103430003040C8F2000001F033FE40F2025000F0CC
:10344000A7FE07994EF63040C8F2000001F050FD8B
:1034500004994EF63010C8F2000001F049FD0599BC
:1034600046F23070C8F2000001F01AFE4FF44070CE
:1034700000F08EFE07994EF62810C8F2000001F009
:1034800037FD07994FF62810C8F2000001F030FD13
:10349000059947F22030C8F2000001F001FE0699BC
:1034A00042F20C00C8F2000001F0FAFD079B089AF6
:1034B00048F26011C4F20D01086820F01F00086096
:1034C0004CF26001C4F20F01086820F0700008603F
:1034D000086863F303000860086820F4600008606F
:1034E000086862F314400860086820F4807008607F
:1034F000086820F080000860086820F0807008608C
:1035000040F24801C2F2000144F20060C2F2C3304E
:1035100008600AB080BD000080B588B04EF6145037
:10352000CEF2000000688003002817D5FFE7BFF344
:103530004F8FBFF36F8F4EF61451CEF20001086823
:1035400020F4003008604EF65071CEF200010020E9
:103550000860BFF34F8FBFF36F8FFFE74EF6145035
:10356000CEF200000068C00300283DD5FFE74EF60C
:103570008451CEF2000100200860BFF34F8F4EF659
:103580001451CEF20001086820F480300860BFF3C7
:103590004F8F4EF68050CEF20000006807900798DB
:1035A000C0F34E300690FFE70798C0F3C9000590BE
:1035B000FFE706990598800761F34D104EF6747188
:1035C000CEF2000108600598411E05910028F0D157
:1035D000FFE70698411E06910028E5D1FFE7BFF3FB
:1035E0004F8FBFF36F8FFFE7FFF77EFC4EF69C52C5
:1035F000CEF2000200921020CCF2000010604EF6D5
:10360000A051CEF2000101913920C0F210300860C3
:103610001120C8F2000010603B20C0F2103008609A
:103620001223C7F2000313602B23C0F203630B6065
:10363000132313600860142010601F20C0F20330B1
:1036400008601520C2F2000010602520C0F203308F
:1036500008601623C2F22003136008601720C2F22C
:10366000280010600920C0F2033008601820C8F25A
:10367000000010603120C0F2033008601920C8F249
:10368000E01010602920C0F2083008600420FFF725
:103690003FFC4EF61450CEF200000068C003002834
:1036A00001D5FFE73CE04EF68451CEF20001002048
:1036B0000860BFF34F8F4EF68050CEF200000068D6
:1036C00004900498C0F34E300390FFE70498C0F3D1
:1036D000C9000290FFE703990298800761F34D103B
:1036E0004EF66071CEF2000108600298411E029110
:1036F0000028F0D1FFE70398411E03910028E5D18F
:10370000FFE7BFF34F8F4EF61451CEF20001086869
:1037100040F480300860BFF34F8FBFF36F8FFFE737
:103720004EF61450CEF2000000688003002801D548
:10373000FFE71AE0BFF34F8FBFF36F8F4EF6507164
:10374000CEF2000100200860BFF34F8FBFF36F8FF0
:103750004EF61451CEF20001086840F400300860C3
:10376000BFF34F8FBFF36F8FFFE708B080BD00003E
:1037700080B584B042F22460C8F2000000F060FE20
:10378000D0B9FFE70D20C0F2100000F071FF4AF63B
:10379000AB21CAF6AA21A0FB0110800802904EF2CC
:1037A0002400C8F2070000F06FFD014602980131C5
:1037B000B0FBF1F003900FE000F072FE01904EF2CA
:1037C0002400C8F2070000F05FFD014601980131B6
:1037D000B0FBF1F00390FFE7039804B080BD000058
:1037E00080B5FFF7ADFB80BD80B584B044F23611E3
:1037F000C2F201010020087044F23711C2F2010147
:10380000087044F23811C2F20101087044F2391113
:10381000C2F20101087043F64071C2F20101087062
:1038200043F64171C2F20101087001208DF80F00CA
:1038300040F26800C2F200004068400800EE100A42
:10384000B8EE400A40F24C00C2F2000090ED001ABF
:1038500030EE410ABDEEC00A44F24011C2F201014D
:1038600081ED000A40F25000C2F2000090ED000A23
:10387000BDEEC00A44F25010C2F2010080ED000A11
:10388000096844F23C12C2F201021160006844F27D
:103890004C11C2F20101086043F67831C2F2010115
:1038A00078200860FFE744F24C10C2F2010090ED6E
:1038B000000AB8EEC00A40F25000C2F2000090EDDB
:1038C000001AB9EE042A31EE021AB4EE410AF1EE02
:1038D00010FA50DDFFE7FFE744F23C10C2F20100AE
:1038E0000068012824DBFFE740F26802C2F2000210
:1038F00044F24C10C2F2010000681168D26844F230
:103900003C13C2F201031B6800FB0230084410F8AC
:10391000010C9DF80F10884201DAFFE732E0FFE763
:1039200044F23C11C2F20101086801380860D3E793
:1039300040F26800C2F200004068400800EE100A41
:10394000B8EE400A40F24C00C2F2000090ED001ABE
:1039500030EE410ABDEEC00A44F23C10C2F2010052
:1039600080ED000AFFE744F24C11C2F20101086841
:103970000138086097E743F64071C2F20101012067
:103980000870FFE740F26802C2F2000244F24C10F5
:10399000C2F2010001681068D26844F23C13C2F21E
:1039A00001031B6801FB0231405C9DF80F10884247
:1039B00034DBFFE740F25400C2F2000090ED000A51
:1039C000BDEEC00A10EE101A40F25C00C2F2000018
:1039D00090ED000ABDEEC00A10EE102A44F23C1031
:1039E000C2F20100036844F24C10C2F20100006808
:1039F00043F6783EC2F2010EEC46CCF808E043F202
:103A0000B87EC2F2010ECCF804E0CCF8000040F21F
:103A10006800C2F2000006F01BFE06E043F67831B3
:103A2000C2F2010100200860FFE740F26800C2F224
:103A300000004068400800EE100AB8EE400A40F26C
:103A40004C00C2F2000090ED001A30EE010ABDEE0B
:103A5000C00A44F24811C2F2010181ED000A40F2AD
:103A60005000C2F2000090ED000ABDEEC00A44F220
:103A70005810C2F2010080ED000A096844F24412B5
:103A8000C2F201021160006844F25411C2F2010155
:103A9000086043F63C71C2F2010178200860FFE73C
:103AA00044F25410C2F2010090ED000AB8EEC00AD0
:103AB00040F25000C2F2000090ED001AB9EE042A64
:103AC00031EE021AB4EE410AF1EE10FA55DDFFE7CD
:103AD000FFE744F24410C2F20100006840F26801BE
:103AE000C2F2000149680139884223D2FFE740F25F
:103AF0006802C2F2000244F25410C2F201000068EF
:103B00001168D26844F24413C2F201031B6800FB3F
:103B10000230084440789DF80F10884201DAFFE730
:103B200032E0FFE744F24411C2F2010108680130BB
:103B30000860CEE740F26800C2F20000406840082A
:103B400000EE100AB8EE400A40F24C00C2F200004B
:103B500090ED001A30EE010ABDEEC00A44F24410A6
:103B6000C2F2010080ED000AFFE744F25411C2F2F4
:103B7000010108680138086092E743F64171C2F21A
:103B8000010101200870FFE740F26802C2F2000262
:103B900044F25410C2F2010001681068D26844F285
:103BA0004413C2F201031B6801FB0231405C9DF823
:103BB0000F10884234DBFFE740F25400C2F20000ED
:103BC00090ED000ABDEEC00A10EE101A40F25C0043
:103BD000C2F2000090ED000ABDEEC00A10EE102AFD
:103BE00044F24410C2F20100036844F25410C2F2DD
:103BF0000100006843F63C7EC2F2010EEC46CCF8B0
:103C000008E043F67C3EC2F2010ECCF804E0CCF8AA
:103C1000000040F26800C2F2000008F021FC06E05B
:103C200043F63C71C2F2010100200860FFE704B0D6
:103C300080BD000000000000FFE7FEE7000000007C
:103C400080B544F25000C2F20100406808B1FFE7BD
:103C50000BE044F2C140C8F2010044F21251C8F234
:103C6000010141F2AD1209F0D7FD44F25000C2F259
:103C70000100416840F22810C2F2000002680020F2
:103C8000C4F21D009047BFF34F8F80BD00000000BD
:103C900080B544F25000C2F20100806808B1FFE72D
:103CA0000BE044F2DC40C8F2010044F21251C8F2C9
:103CB000010141F2B81209F0AFFD44F25000C2F226
:103CC0000100816840F22810C2F20000026844F24C
:103CD0000000C4F21D009047BFF34F8F80BD00006D
:103CE00080B544F25000C2F20100C06808B1FFE79D
:103CF0000BE044F2F740C8F2010044F21251C8F25E
:103D0000010141F2C31209F087FD44F25000C2F2F2
:103D10000100C16840F22810C2F20000026848F2B7
:103D20000000C4F21D009047BFF34F8F80BD00001C
:103D300080B584B0ADF80E008DF80D10BDF90E0001
:103D4000000A0290BDF80E0000F01F0001900298DA
:103D5000072801D8FFE70BE044F2CE30C8F201009B
:103D600044F2B111C8F2010140F2DF5209F054FDF2
:103D700002994CF26800C4F20F0000EB8100009041
:103D80000098019B032199409DF80D209A4009F06D
:103D9000BBFB04B080BD000080B584B0ADF80E0060
:103DA0008DF80D10BDF90E00000A0290BDF80E004E
:103DB00000F01F0001900298072801D8FFE70BE0F0
:103DC00044F2CE30C8F2010044F2B111C8F2010150
:103DD00040F2DF5209F020FD02994CF26800C4F273
:103DE0000F0000EB810000900098019B0321994097
:103DF0009DF80D209A4009F0A3FB04B080BD00009F
:103E000080B584B0ADF80E008DF80D10BDF90E0030
:103E1000000A0290BDF80E0000F01F000190029809
:103E2000072801D8FFE70BE044F2CE30C8F20100CA
:103E300044F2B111C8F2010140F2DF5209F0ECFC8A
:103E400002994CF26800C4F20F0000EB8100009070
:103E50000098019B032199409DF80D209A4009F09C
:103E60008BFB04B080BD000080B584B0ADF80E00BF
:103E70008DF80D10BDF90E00000A0290BDF80E007D
:103E800000F01F0001900298072801D8FFE70BE01F
:103E900044F2CE30C8F2010044F2B111C8F201017F
:103EA00040F2DF5209F0B8FC02994CF26800C4F20B
:103EB0000F0000EB810000900098019B03219940C6
:103EC0009DF80D209A4009F073FB04B080BD0000FE
:103ED00080B584B0ADF80E008DF80D10BDF90E0060
:103EE000000A0290BDF80E0000F01F000190029839
:103EF000072801D8FFE70BE044F2CE30C8F20100FA
:103F000044F2B111C8F2010140F2DF5209F084FC21
:103F100002994CF26800C4F20F0000EB810000909F
:103F20000098019B032199409DF80D209A4009F0CB
:103F30005BFB04B080BD000080B584B0ADF80E001E
:103F40008DF80D10BDF90E00000A0290BDF80E00AC
:103F500000F01F0001900298072801D8FFE70BE04E
:103F600044F2CE30C8F2010044F2B111C8F20101AE
:103F700040F2DF5209F050FC02994CF26800C4F2A2
:103F80000F0000EB810000900098019B03219940F5
:103F90009DF80D209A4009F043FB04B080BD00005D
:103FA00080B584B0ADF80E008DF80D10BDF90E008F
:103FB000000A0290BDF80E0000F01F000190029868
:103FC000072801D8FFE70BE044F2CE30C8F2010029
:103FD00044F2B111C8F2010140F2DF5209F01CFCB9
:103FE00002994CF26800C4F20F0000EB81000090CF
:103FF0000098019B032199409DF80D209A4009F0FB
:104000002BFB04B080BD000080B584B0ADF80E007D
:104010008DF80D10BDF90E00000A0290BDF80E00DB
:1040200000F01F0001900298072801D8FFE70BE07D
:1040300044F2CE30C8F2010044F2B111C8F20101DD
:1040400040F2DF5209F0E8FB02994CF26800C4F23A
:104050000F0000EB810000900098019B0321994024
:104060009DF80D209A4009F013FB04B080BD0000BC
:1040700080B584B0ADF80E008DF80D10BDF90E00BE
:10408000000A0290BDF80E0000F01F000190029897
:10409000072801D8FFE70BE044F2CE30C8F2010058
:1040A00044F2B111C8F2010140F2DF5209F0B4FB51
:1040B00002994CF26800C4F20F0000EB81000090FE
:1040C0000098019B032199409DF80D209A4009F02A
:1040D000FBFA04B080BD000048F27001C4F20D018B
:1040E0004FF480500860704748F2E001C4F20D01BF
:1040F0004FF480500860704748F22001C4F20D016F
:10410000002008607047000048F2A001C4F20D01D1
:104110004FF480500860704780B582B0ADF806005B
:10412000BDF906000021FFF76BFE02B080BD000064
:1041300080B582B0ADF80600BDF906000021FFF79A
:10414000C7FE02B080BD000080B582B0ADF80600A9
:10415000BDF906000021FFF7EFFE02B080BD0000B0
:1041600080B582B0ADF80600BDF906000021FFF76A
:1041700017FF02B080BD000080B582B0ADF8060028
:10418000BDF906000021FFF73FFF02B080BD00002F
:1041900080B582B0ADF80600BDF906000021FFF73A
:1041A00067FF02B080BD000080B582B0ADF80600A8
:1041B000BDF906000321FFF7BBFD02B080BD000082
:1041C00080B582B0ADF80600BDF906000321FFF707
:1041D000E3FD02B080BD000080B582B0ADF80600FE
:1041E000BDF906000321FFF70BFE02B080BD000001
:1041F00080B582B0ADF80600BDF906000321FFF7D7
:1042000033FE02B080BD000080B582B0ADF806007C
:10421000BDF906000321FFF75BFE02B080BD000080
:1042200080B582B0ADF80600BDF906000321FFF7A6
:1042300083FE02B080BD000080B582B0ADF80600FC
:10424000BDF906000321FFF7ABFE02B080BD000000
:1042500080B582B0ADF80600BDF906000321FFF776
:10426000D3FE02B080BD000080B500F059F94CF2D9
:104270001401C4F20F01096801F4E052012101EBBD
:104280009221B0FBF1F080BD81B00090009840F623
:10429000C071C0F2400161F31F2000680099C1F3B2
:1042A0004C32C1F304218A401040C84001B070472D
:1042B00080B584B08DF80F009DF80F000146019184
:1042C0001B2800F2A7800199DFE801F00E0E1216FC
:1042D0001A1E22262B32373C415F666D72777C8135
:1042E000888F969D464A4F54FFF7BEFF029094E098
:1042F00000F0F2FB029090E000F092F802908CE067
:1043000000F0EAF8029088E000F0AEF8029084E055
:1043100000F0DEFB029080E00D2000F0A9F9029091
:104320007BE00D20C0F2100000F0A2F9029074E0D2
:10433000002000F055FC02906FE0012000F050FCDE
:1043400002906AE0022000F04BFC029065E003203E
:1043500000F046FC029060E000F096FB02905CE00A
:1043600000F092FB8008029057E000F08DFBC0083F
:10437000029052E000F088FB4AF6AB21CAF6AA216F
:10438000A0FB01108008029047E00D20C0F2200041
:1043900000F06EF9029040E00D20C0F2300000F015
:1043A00067F9029039E0002000F0CAFB029034E087
:1043B000012000F0C5FB02902FE0022000F0C0FBBE
:1043C00002902AE0032000F0BBFB029025E00D20C4
:1043D000C0F2E00000F04CF902901EE01420C0F2A0
:1043E000E00000F045F9029017E01520C0F2E0006F
:1043F00000F03EF9029010E00D20C0F2700000F0D5
:1044000037F9029009E00D20C0F2A00000F030F969
:10441000029002E000200290FFE7029804B080BD05
:1044200080B5FFF721FF4CF21401C4F20F010968B7
:1044300001F44072012101EB1221B0FBF1F080BDCB
:1044400081B00090009840F6C071C0F2400161F365
:104450001F2000680099C1F34C32C1F304218A4047
:104460001040C84001B0704781B048F27020C4F2DB
:104470000D000068C006002806D5FFE743F2006083
:10448000C0F26E10009006E043F28C60C2F20100B0
:1044900000680090FFE7009801B07047000000003E
:1044A00081B048F27020C4F20D000068C0060028F8
:1044B00006D5FFE743F20060C0F26E10009006E000
:1044C00043F28C60C2F2010000680090FFE70098A0
:1044D00001B070470000000080B582B04CF21C00B3
:1044E000C4F20F0000684006002804D5FFE7FFF77C
:1044F000BBFF019003E0FFF793FF0190FFE74CF251
:104500001C00C4F20F00006800F03F00411C01983D
:10451000B0FBF1F00190019802B080BD00000000F6
:1045200080B584B04CF21400C4F20F000068800122
:1045300000283FD5FFE74CF21800C4F20F000068D6
:1045400000F440500146029178B1FFE70298B0F5BF
:10455000805F11D0FFE70298B0F5005F10D0FFE751
:104560000298B0F5405F12D012E00D20C0F21000AA
:1045700000F07EF803900EE0FFF776FF03900AE06C
:104580000D20C0F2300000F073F8039003E0FFE765
:1045900000200390FFE74CF21400C4F20F00006803
:1045A00000F06051012000EBD1610398B0FBF1F005
:1045B00003903DE04CF21800C4F20F00006800F4D4
:1045C00040200146019178B1FFE70198B0F5802FB6
:1045D00011D0FFE70198B0F5002F11D0FFE7019847
:1045E000B0F5402F11D01FE00D20C0F2300000F0D8
:1045F0003FF803901BE0022000F0A2FA039016E0BF
:10460000002000F09DFA039011E00D2000F030F83A
:104610004CF21001C4F20F01096801F007010131E9
:10462000B0FBF1F0039002E000200390FFE7FFE70A
:10463000039804B080BD000080B584B0039002915F
:104640000398BDF80A106FF31F31405881B2002063
:10465000B0EB913F04D1FFE7FFF706FF019002E0C6
:1046600000200190FFE7019804B080BD0000000029
:1046700080B58CB00A900A9948F20000C4F20D008F
:1046800000F092FB18B9FFE700200B90F9E10A99BE
:1046900048F20000C4F20D000590FFF7CDFF01467F
:1046A000059809910A9900F06FFB18B1FFE7099886
:1046B0000B90E6E10A9804900D283DD0FFE704989E
:1046C0000D21C0F2100188427DD0FFE704980D2132
:1046D000C0F22001884200F0C081FFE704980D215C
:1046E000C0F23001884233D0FFE704980D21C0F2B8
:1046F0007001884275D0FFE704980D21C0F2A00137
:10470000884200F0FB80FFE704980D21C0F2E00131
:10471000884200F07A81FFE704981421C0F2E0019A
:10472000884200F08381FFE704981521C0F2E00180
:10473000884200F08C819EE1099848F20001C4F2A1
:104740000D01096801F07F0148434008099095E197
:104750009DED090AB8EE400B48F25000C4F20D007E
:1047600090ED001AB8EE411B20EE010B8DED060B0B
:1047700048F26000C4F20D0090ED000AB8EE401B54
:104780009DED060B80EE010B8DED060B48F230001F
:10479000C4F20D000068C00728B1FFE70998162190
:1047A0004843099005E0099800EB800080000990DB
:1047B000FFE79DED060BBCEEC00B10EE101A09983A
:1047C000084409905AE1099848F21001C4F20D0119
:1047D00009688A071421002A48BF16214843099016
:1047E0004CE148F27000C4F20D00016801F07F0155
:1047F00008919DED090AB8EE400B48F28001C4F221
:104800000D0191ED001AB8EE411B20EE010B8DED6C
:10481000060B48F29001C4F20D0191ED000AB8EECA
:10482000401B9DED060B80EE010B8DED060B0999EB
:10483000089A9DED060BBCEEC00B10EE103A01FB82
:1048400002310991006800F4C0100146039150B193
:10485000FFE70398B0F5002F09D0FFE70398B0F504
:10486000801F08D008E009988008099010E0099896
:10487000400809900CE00BE044F2A630C8F20100B9
:1048800044F27031C8F2010140F2174208F0C4FF4F
:1048900048F27010C4F20D00006848F20001C0F246
:1048A0008001084001460291D0B1FFE70298B0F5BF
:1048B000004F11D0FFE70298B0F5000F10D0FFE7CE
:1048C000029848F20001C0F28001884209D1FFE756
:1048D00009988008099010E00998400809900CE0B8
:1048E0000BE044F2A630C8F2010044F27031C8F285
:1048F000010140F22B4208F08FFFBFE048F2A00018
:10490000C4F20D00016801F07F0108919DED090AD4
:10491000B8EE400B48F2B001C4F20D0191ED001A5F
:10492000B8EE411B20EE010B8DED060B48F2C001E5
:10493000C4F20D0191ED000AB8EE401B9DED060B8F
:1049400080EE010B8DED060B0999089A9DED060B83
:10495000BCEEC00B10EE103A01FB02310991006869
:1049600000F4C0100146019150B1FFE70198B0F585
:10497000002F09D0FFE70198B0F5801F08D008E0AC
:1049800009988008099010E00998400809900CE007
:104990000BE044F2A630C8F2010044F27031C8F2D4
:1049A00001014FF48B6208F037FF48F27010C4F237
:1049B0000D00006800F0404001460091B0F1004F4A
:1049C00015D0FFE70098B0F1404F08D0FFE70098FE
:1049D00068B1FFE70098B0F1804F04D008E0099873
:1049E0008008099010E00998400809900CE00BE05D
:1049F00044F2A630C8F2010044F27031C8F201015D
:104A000040F26C4208F008FF38E048F2E000C4F2DF
:104A10000D00006800F003000890089943F2406020
:104A2000C8F2010050F82100099027E048F2E000A8
:104A3000C4F20D000068C0F381000890089943F2A9
:104A40004060C8F2010050F82100099016E047F6D6
:104A50004000C0F27D10099010E0099848F2200152
:104A6000C4F20D0109688A071421002A48BF1621E3
:104A70004843099002E000200990FFE709980B9055
:104A8000FFE70B980CB080BD80B582B04CF20C00F3
:104A9000C4F20F00006800F001000146009120B14F
:104AA000FFE70098012807D00CE00D20C0F21000AD
:104AB000FFF7DEFD019008E043F20060C0F26E10E7
:104AC000019002E000200190FFE7019802B080BD54
:104AD0004FF400407047000080B582B04CF21400E3
:104AE000C4F20F0000684006002814D5FFE74CF21E
:104AF0001400C4F20F0000680006002805D5FFE787
:104B0000012000F06DF8019004E0022000F018F898
:104B10000190FFE703E0FFF703FD0190FFE74CF290
:104B20001400C4F20F00006800F4E021012000EB43
:104B300011410198B0FBF1F00190019802B080BDE5
:104B400080B584B08DF80F000D20C0F23000FFF763
:104B50008FFD02909DF80F0001460191032834D883
:104B60000199DFE801F0020E1A2648F20010C4F2A3
:104B70000D00006800F03F010298B0FBF1F00290D8
:104B800026E048F20010C4F20D000068C0F30521D1
:104B90000298B0FBF1F002901AE048F20010C4F263
:104BA0000D000068C0F305410298B0FBF1F00290DF
:104BB0000EE048F20010C4F20D000068C0F3056179
:104BC0000298B0FBF1F0029002E000200290FFE7B3
:104BD000029800EBC00040000290029804B080BD33
:104BE00080B584B08DF80F000D20C0F21000FFF7E3
:104BF0003FFD02909DF80F0001460191032834D833
:104C00000199DFE801F0020E1A2648F2F000C4F222
:104C10000D00006800F03F010298B0FBF1F0029037
:104C200026E048F2F000C4F20D000068C0F3052150
:104C30000298B0FBF1F002901AE048F2F000C4F2E2
:104C40000D000068C0F305410298B0FBF1F002903E
:104C50000EE048F2F000C4F20D000068C0F30561F8
:104C60000298B0FBF1F0029002E000200290FFE712
:104C7000029800EBC00040000290029804B080BD92
:104C800081B0009048F20001C4F20D01086820F4E0
:104C9000E030009A1279920392B2104400F580300D
:104CA0000860086843F27F029043009A126802F09D
:104CB0007F02104400F500500860FFE748F2000052
:104CC000C4F20D000068C00F08B9FFE7F6E748F22C
:104CD0000001C4F20D01086820F48030086001B0C2
:104CE000704700000000000082B08DF807009DF8BA
:104CF0000700C00708B9FFE70AE044F29730C8F29E
:104D0000010044F27031C8F20101C12208F084FDB3
:104D100048F25811C4F20D014FF080400860FFE7DF
:104D200048F27020C4F20D000068C003002801D4CE
:104D3000FFE7F5E748F25411C4F20D014FF480305B
:104D40000860FFE748F25010C4F20D00006800044C
:104D5000002801D4FFE7F5E748F25811C4F20D012D
:104D60004FF48030086002B070470000000000007F
:104D700048F27021C4F20D01086840F0010008609B
:104D8000704700000000000082B00190009101987F
:104D9000BDF802106FF31F314058C0F3004002B05D
:104DA000704700000000000082B00190009101985F
:104DB000BDF802106FF31F314058009901F01F0138
:104DC000C84000F0010002B0704700000000000081
:104DD00080B584B0039002910398800E01900398EF
:104DE00040F6C072C0F2400262F31F2000680399CF
:104DF000C1F34C33C1F3042E03FA0EFC20EA0C007D
:104E0000029B03FA0EF303EA0C03184362F31F211B
:104E100008600198202801D8FFE70BE044F26910F0
:104E2000C8F2010044F2B111C8F2010140F2BD52D2
:104E300008F0F2FC019820280DD0FFE7FFE74CF2C4
:104E40004800C4F20F0000680199C840C00708B1CB
:104E5000FFE7F4E7FFE704B080BD000000000000BA
:104E600080B584B0039002910398800E019003985E
:104E700040F6C072C0F2400262F31F20006803993E
:104E8000C1F34C33C1F3042E03FA0EFC20EA0C00EC
:104E9000029B03FA0EF303EA0C03184362F31F218B
:104EA00008600198202801D8FFE70BE044F2691060
:104EB000C8F2010044F2B111C8F2010140F2BD5242
:104EC00008F0AAFC019820280DD0FFE7FFE74CF27C
:104ED0004800C4F20F0000680199C840C00708B13B
:104EE000FFE7F4E7FFE704B080BD0000000000002A
:104EF00080B584B0039002910398800E01900398CE
:104F000040F6C072C0F2400262F31F2000680399AD
:104F1000C1F34C33C1F3042E03FA0EFC20EA0C005B
:104F2000029B03FA0EF303EA0C03184362F31F21FA
:104F300008600198202801D8FFE70BE044F26910CF
:104F4000C8F2010044F2B111C8F2010140F2BD52B1
:104F500008F062FC019820280DD0FFE7FFE74CF233
:104F60004800C4F20F0000680199C840C00708B1AA
:104F7000FFE7F4E7FFE704B080BD00000000000099
:104F800080B584B0039002910398800E019003983D
:104F900040F6C072C0F2400262F31F20006803991D
:104FA000C1F34C33C1F3042E03FA0EFC20EA0C00CB
:104FB000029B03FA0EF303EA0C03184362F31F216A
:104FC00008600198202801D8FFE70BE044F269103F
:104FD000C8F2010044F2B111C8F201014FF4B1620C
:104FE00008F01AFC019820280DD0FFE7FFE74CF2EB
:104FF0004800C4F20F0000680199C840C00708B11A
:10500000FFE7F4E7FFE704B080BD00000000000008
:1050100080B584B0039002910398800E01900398AC
:1050200040F6C072C0F2400262F31F20006803998C
:10503000C1F34C33C1F3042E03FA0EFC20EA0C003A
:10504000029B03FA0EF303EA0C03184362F31F21D9
:1050500008600198202801D8FFE70BE044F26910AE
:10506000C8F2010044F2B111C8F201014FF4B1627B
:1050700008F0D2FB019820280DD0FFE7FFE74CF2A3
:105080004800C4F20F0000680199C840C00708B189
:10509000FFE7F4E7FFE704B080BD00000000000078
:1050A00080B584B0039002910398800E019003981C
:1050B00040F6C072C0F2400262F31F2000680399FC
:1050C000C1F34C33C1F3042E03FA0EFC20EA0C00AA
:1050D000029B03FA0EF303EA0C03184362F31F2149
:1050E00008600198202801D8FFE70BE044F269101E
:1050F000C8F2010044F2B111C8F201014FF4B162EB
:1051000008F08AFB019820280DD0FFE7FFE74CF25A
:105110004800C4F20F0000680199C840C00708B1F8
:10512000FFE7F4E7FFE704B080BD000000000000E7
:1051300083B0029001918DF803209DF80300C00711
:1051400050B1FFE70298BDF806106FF31F3101441C
:105150004FF48030486009E00298BDF806106FF304
:105160001F3101444FF480308860FFE703B070477F
:1051700081B00090009843F28861C2F2010108609A
:1051800001B070470000000081B00090009843F229
:105190008C61C2F20101086001B07047000000009C
:1051A00081B08DF803009DF8030038B9FFE748F29D
:1051B0007421C4F20D011020086006E048F2782145
:1051C000C4F20D0110200860FFE701B07047000035
:1051D00084B003908DF80B100020009003980068B5
:1051E0000190019820F48070039908609DF80B00ED
:1051F000C00728B1FFE7009840F020000090FFE7CB
:105200009DF80B008007002805D5FFE7009840F0C7
:1052100040000090FFE7019820F480700099084357
:1052200003990860FFE7039800680099084201D0DD
:10523000FFE7F8E701980399086004B070470000A1
:1052400080B540F22410C2F20000026844F210005F
:10525000C2F2010001684CF20000C4F22B0090473A
:10526000BFF34F8F80BD000083B002908DF8071010
:105270008DF80620002000909DF80700C00728B197
:10528000FFE7009840F480500090FFE79DF807008A
:105290008007002805D5FFE7009840F400600090E3
:1052A000FFE79DF80600C00730B1FFE7009A0299BA
:1052B00088681043886005E0009A029988689043E6
:1052C0008860FFE703B0704782B001900091BDF89D
:1052D00002200199086840EA024008609DF8002019
:1052E00001998868104388609DF8010002020199C5
:1052F000886C40EA9210886402B070470000000099
:1053000082B00190019808B1FFE70BE044F28E20D3
:10531000C8F2010044F2DB31C8F201014FF4E67239
:1053200008F07AFA01990020C86088604860086037
:10533000019A4FF4A0711180019AF0215180019AD5
:1053400040F602015160019A02211172019A4FF454
:1053500020715181019A10219181019988730199DD
:105360000120C87302B0704782B001900020009005
:10537000FFE7009888B9FFE7009943F6D860C8F2C4
:10538000010050F821000199884201D1FFE704E0B3
:10539000FFE7009801300090EBE7009808B9FFE7BD
:1053A0000AE044F2AC30C8F2010044F2DB31C8F24A
:1053B0000101B52208F030FA009802B070470000F1
:1053C00083B002908DF807109DF8070020B1FFE729
:1053D0000298C06A009003E00298806A0090FFE79C
:1053E000009803B07047000080B5FFF729FFBFF3B6
:1053F0004F8F80BD0000000080B588B006900591F9
:10540000059808B1FFE70BE044F28E20C8F20100D6
:1054100044F2DB31C8F2010140F21D1208F0FCF940
:1054200005990888097A484303909DF80C004007C5
:1054300028B9FFE705984089400718B1FFE7042025
:10544000079095E00698FFF78FFF0190019943F6CA
:10545000DC60C8F2010030F91100FEF7A5FE0698E5
:1054600000F0B6F8059988894968084340F48070CF
:1054700004900598C07BC00728B1FFE7049840F06E
:1054800080400490FFE70498069908600598807BA7
:1054900048B9FFE70598007A022804D1FFE7022007
:1054A0008DF80B0003E001208DF80B00FFE7059855
:1054B000007A042806D1FFE70699886C40F00800BE
:1054C0008864FFE70598807B012806D1FFE70699ED
:1054D000886840F008008860FFE7059801889DF81B
:1054E0000B205143408840EA0140069948630598E3
:1054F00040890399401AC00806990863069988688C
:1055000040F0010088609DF80C00400660B9FFE79C
:1055100006994FF04040486006988068022161F388
:105520000610069988601CE09DF80C00800660B9A2
:10553000FFE706994FF00040486006988068012117
:1055400061F30610069988600AE006994FF08040E2
:1055500048600698806820F0700006998860FFE730
:10556000FFE70698012100F007F800200790FFE709
:10557000079808B080BD000083B002908DF8071036
:10558000002000909DF80700C00728B1FFE70098B1
:1055900040F480400090FFE79DF807008007002856
:1055A00005D5FFE7009840F400500090FFE7009A0F
:1055B0000299886810438860FFE702988068009924
:1055C000084201D0FFE7F8E703B070470000000091
:1055D00080B584B00390039800F05AF80399002036
:1055E00088600399886840F400408860FFE703986A
:1055F00080680004002801D5FFE7F8E7039803213D
:105600000191FFF7E5FD01990398FFF7B5FF0398B6
:1056100080690290029803998861039940F600001E
:10562000C4F2000008600399002048600399886074
:10563000039A4FF4504191640399086303994863B6
:1056400004B080BD0000000083B002908DF8071008
:1056500000929DF8070020B1FFE700980299C86208
:1056600003E0009802998862FFE703B070470000EA
:1056700080B582B00190019801221146FFF7F4FD38
:105680000199886C40F00040886402B080BD000041
:1056900080B582B001900199886C20F00040886448
:1056A000019801210022FFF7DFFD02B080BD00005C
:1056B00080B586B00590049103920293049808B1D6
:1056C000FFE70BE044F20040C8F2010044F2DB3196
:1056D000C8F2010140F2852208F09EF804983821B2
:1056E000FDF741F903980499086302980499486307
:1056F0000598FFF739FE01900498019A44F21001D1
:10570000C2F2010141F8220040F22411C2F200016C
:1057100043F2C130C8F200000860019943F6DE6030
:10572000C8F2010030F9110001F05AFF002006B064
:1057300080BD00000000000081B00090009991F849
:105740002A00013881F82A00009890F82A1000EB0E
:105750008100406901B0704781B00090009890F8D6
:105760002A0001B07047000080B586B00590049112
:105770000392049890F829008DF80300049890F89B
:1057800028008DF802009DF803009DF80210884261
:1057900004D1FFE740F6553001901CE00598006801
:1057A0000290029820F4C01005990860049890F8BF
:1057B000291050F8210003990860049890F82900F6
:1057C00000F0D2F8049981F8290002980599086040
:1057D00000200190FFE7019806B080BD00000000A6
:1057E00081B08DF803008DF802109DF802009DF83D
:1057F0000310884208DBFFE79DF802009DF80310C4
:10580000401A8DF8010008E09DF802009DF8031091
:10581000401A05308DF80100FFE79DF8010001B046
:10582000704700000000000080B588B00790069126
:10583000079880690390039807998861039800F49A
:10584000C010B0F5C01F01D1FFE788E09DF80E0041
:1058500010F0180F00F08180FFE79DF80E00C006E1
:10586000002804D5FFE701208DF8150003E0002093
:105870008DF81500FFE7069890F82B0002283CD120
:10588000FFE7069890F828008DF81700069890F822
:1058900029008DF816009DF816009DF81710FFF7E7
:1058A0009FFF032827D8FFE707989DF81510FFF7FB
:1058B00087FD0490049806999DF8172041F822006E
:1058C0009DF8170000F050F8069981F82800069915
:1058D00091F82B00013881F82B000698006B48B135
:1058E000FFE706990798D1F830C04B6B40F6573266
:1058F000E047FFE700E0FFE7FFE7069890F82B009E
:10590000012829D8FFE70698FFF726FFA0B1FFE797
:10591000079802909DF8150001900698FFF70CFF7C
:10592000019902460298FFF78FFE069991F82B0025
:10593000013081F82B000EE007989DF8151081F0DA
:105940000101FFF73DFD049007989DF81510049A9A
:10595000FFF77AFEFFE7FFE700E0FFE7FFE708B0A9
:1059600080BD00000000000081B08DF803009DF8AC
:10597000030001308DF802009DF80200052804D3D1
:10598000FFE700208DF80200FFE79DF8020001B05C
:10599000704700000000000082B001900091009864
:1059A000019991F82A2001EB82014861019991F84F
:1059B0002A00013081F82A0002B070470000000080
:1059C00080B586B004900391039808B1FFE70BE01F
:1059D00044F20040C8F2010044F2DB31C8F2010198
:1059E0004FF42B7207F018FF0398FFF7B5FE0290F3
:1059F0000298012804D8FFE740F65430059029E0CA
:105A00000498806C40F0300020F4402004998864B1
:105A10000398FFF791FE049988620398FFF78CFEC4
:105A20000499C8620399022081F82B00049801218F
:105A30000191FFF7A1FD0198039981F82C000498CA
:105A40004FF4C011FFF740FC0498FFF711FE00204F
:105A50000590FFE7059806B080BD0000000000003B
:105A600080B584B003900291019203980068009081
:105A7000009820F4C0100399086002980199FFF77C
:105A80008BFF009803990860002004B080BD0000DF
:105A900080B582B0002000908DF807000BF00CF963
:105AA000014600988DF8071009F0EEFC9DF80700FC
:105AB00002B080BD0000000080B582B043F2CC503F
:105AC000C2F201000078002841D1FFE749F65C707E
:105AD000C2F200000068D0B3FFE740F2B810C2F293
:105AE0000000006898B3FFE744F23610C2F20100EC
:105AF000007860B3FFE744F23710C2F2010000788B
:105B000028BBFFE749F66070C2F200000068F0B9F8
:105B1000FFE740F2C010C2F200000068B8B9FFE72A
:105B200043F2CC51C2F201010120087043F2C85186
:105B3000C2F2010108680130086069461F20086050
:105B40000021642308461A4609F086FD4AE043F224
:105B5000CC50C2F201000078002842D1FFE749F69C
:105B60006070C2F200000068D8B3FFE740F2C010D6
:105B7000C2F200000068A0B3FFE744F23710C2F29F
:105B80000100007868B3FFE744F23610C2F201006A
:105B9000007830BBFFE749F65C70C2F20000006895
:105BA000F8B9FFE740F2B810C2F200000068C0B9CF
:105BB000FFE743F2CC51C2F201010220087043F228
:105BC000C851C2F2010108680130086069464FF40B
:105BD000784008600021642308461A4609F03CFD1D
:105BE000FFE7FFE702B080BD80B548F20000C4F2D5
:105BF0000E00002101F084FA4007002808D5FFE7D5
:105C000043F67870C2F20100006801F0B5FAFFE7D0
:105C100048F20000C4F20E00102101F071FA4007B2
:105C2000002808D5FFE743F67870C2F20100006C47
:105C300001F0A2FAFFE7BFF34F8F80BD0000000024
:105C400080B548F20000C4F20E000A2101F058FAB3
:105C50004007002808D5FFE743F67870C2F201003C
:105C6000806A01F089FAFFE748F20000C4F20E00F2
:105C70001A2101F045FA4007002808D5FFE743F64E
:105C80007870C2F20100806E01F076FAFFE7BFF390
:105C90004F8F80BD0000000080B548F20000C4F2C4
:105CA0000E000B2101F02CFA4007002808D5FFE771
:105CB00043F67870C2F20100C06A01F05DFAFFE7B6
:105CC00048F20000C4F20E001B2101F019FA40074F
:105CD000002808D5FFE743F67870C2F20100C06ED5
:105CE00001F04AFAFFE7BFF34F8F80BD00000000CC
:105CF00080B548F20000C4F20E000C2101F000FA59
:105D00004007002808D5FFE743F67870C2F201008B
:105D1000006B01F031FAFFE748F20000C4F20E0018
:105D20001C2101F0EDF94007002808D5FFE743F6F4
:105D30007870C2F20100006F01F01EFAFFE7BFF3B6
:105D40004F8F80BD0000000080B548F20000C4F213
:105D50000E000D2101F0D4F94007002808D5FFE717
:105D600043F67870C2F20100406B01F005FAFFE7DC
:105D700048F20000C4F20E001D2101F0C1F94007F5
:105D8000002808D5FFE743F67870C2F20100406FA3
:105D900001F0F2F9FFE7BFF34F8F80BD0000000074
:105DA00080B548F20000C4F20E000E2101F0A8F9FF
:105DB0004007002808D5FFE743F67870C2F20100DB
:105DC000806B01F0D9F9FFE748F20000C4F20E0041
:105DD0001E2101F095F94007002808D5FFE743F69A
:105DE0007870C2F20100806F01F0C6F9FFE7BFF3DF
:105DF0004F8F80BD0000000080B548F20000C4F263
:105E00000E000F2101F07CF94007002808D5FFE7BC
:105E100043F67870C2F20100C06B01F0ADF9FFE704
:105E200048F20000C4F20E001F2101F069F940079A
:105E3000002808D5FFE743F67870C2F20100C06F72
:105E400001F09AF9FFE7BFF34F8F80BD000000001B
:105E500080B548F20000C4F20E00012101F050F9B3
:105E60004007002808D5FFE743F67870C2F201002A
:105E7000406801F081F9FFE748F20000C4F20E002B
:105E8000112101F03DF94007002808D5FFE743F64E
:105E90007870C2F20100406C01F06EF9FFE7BFF3C9
:105EA0004F8F80BD0000000080B548F20000C4F2B2
:105EB0000E00022101F024F94007002808D5FFE771
:105EC00043F67870C2F20100806801F055F9FFE7EF
:105ED00048F20000C4F20E00122101F011F940074F
:105EE000002808D5FFE743F67870C2F20100806C05
:105EF00001F042F9FFE7BFF34F8F80BD00000000C3
:105F000080B548F20000C4F20E00032101F0F8F859
:105F10004007002808D5FFE743F67870C2F2010079
:105F2000C06801F029F9FFE748F20000C4F20E0052
:105F3000132101F0E5F84007002808D5FFE743F6F4
:105F40007870C2F20100C06C01F016F9FFE7BFF3F0
:105F50004F8F80BD0000000080B548F20000C4F201
:105F60000E00042101F0CCF84007002808D5FFE717
:105F700043F67870C2F20100006901F0FDF8FFE716
:105F800048F20000C4F20E00142101F0B9F84007F5
:105F9000002808D5FFE743F67870C2F20100006DD3
:105FA00001F0EAF8FFE7BFF34F8F80BD000000006B
:105FB00080B548F20000C4F20E00052101F0A0F8FF
:105FC0004007002808D5FFE743F67870C2F20100C9
:105FD000406901F0D1F8FFE748F20000C4F20E007A
:105FE000152101F08DF84007002808D5FFE743F69A
:105FF0007870C2F20100406D01F0BEF8FFE7BFF318
:106000004F8F80BD0000000080B548F20000C4F250
:106010000E00062101F074F84007002808D5FFE7BC
:1060200043F67870C2F20100806901F0A5F8FFE73D
:1060300048F20000C4F20E00162101F061F840079A
:10604000002808D5FFE743F67870C2F20100806DA2
:1060500001F092F8FFE7BFF34F8F80BD0000000012
:1060600080B548F20000C4F20E00072101F048F8A4
:106070004007002808D5FFE743F67870C2F2010018
:10608000C06901F079F8FFE748F20000C4F20E00A1
:10609000172101F035F84007002808D5FFE743F63F
:1060A0007870C2F20100C06D01F066F8FFE7BFF33F
:1060B0004F8F80BD0000000080B548F20000C4F2A0
:1060C0000E00082101F01CF84007002808D5FFE762
:1060D00043F67870C2F20100006A01F04DF8FFE764
:1060E00048F20000C4F20E00182101F009F8400740
:1060F000002808D5FFE743F67870C2F20100006E71
:1061000001F03AF8FFE7BFF34F8F80BD00000000B9
:1061100080B548F20000C4F20E00092100F0F0FF43
:106120004007002808D5FFE743F67870C2F2010067
:10613000406A01F021F8FFE748F20000C4F20E00C7
:10614000192100F0DDFF4007002808D5FFE743F6DE
:106150007870C2F20100406E01F00EF8FFE7BFF365
:106160004F8F80BD0000000080B59CB01A9019913F
:1061700018921793002005901A99049104994A1CCB
:1061800004920870199890ED000B8DED0A0B9DEDAF
:106190000A0BB5EE400BF1EE10FA09D1FFE70499B6
:1061A0003020087005980130059005981B9002E199
:1061B0009DED0A0B06A80EF055FA8DED080B002098
:1061C0001390FFE71398179988420FD2FFE79DEDD0
:1061D000180AB8EEC01B9DED080B20EE010B8DEDEB
:1061E000080BFFE7139801301390EBE79DED0A0BC6
:1061F000B5EE400BF1EE10FA28DBFFE79DED080B42
:10620000B6EE001B30EE010B8DED100B9DED100B6B
:106210008DED020B9DED170AB8EE401BB2EE040B9C
:106220000EF082FAB0EE401B9DED020BB4EE410B76
:10623000F1EE10FA09DBFFE79DED060BB7EE001B50
:1062400030EE010B8DED060BFFE729E09DED080B0D
:10625000BEEE001B30EE010B8DED100B9DED100B13
:106260008DED000B9DED170AB8EE401BB2EE040B4E
:106270000EF05AFAB0EE401B9DED000BB1EE411B43
:10628000B4EE410BF1EE10FA09DCFFE79DED060BD1
:10629000BFEE001B30EE010B8DED060BFFE7FFE7B5
:1062A00000201390FFE71398179988423DD2FFE72B
:1062B0009DED100B9DED181AB8EEC11B80EE010B81
:1062C0008DED0C0B9DED100B9DED0C1BB6EEC11B67
:1062D0009DED182AB8EEC22B01EE420B8DED0E0B90
:1062E0009DED0E0BBDEEC00B8DED140A1498B0F1B0
:1062F000FF3F05DCFFE71498C0F13000149003E085
:10630000149830301490FFE79DED0C0B8DED100BC1
:10631000149804994A1C049208700598013005905D
:10632000FFE7139801301390BDE70499481C0490CF
:106330002E2008700598013005909DED060BBDEEEE
:10634000C00B8DED160A169848B9FFE70499481C52
:1063500004903020087005980130059028E0FFE790
:10636000169820B3FFE71698189990FBF1F0159056
:10637000169A1598189900FB112014901498B0F1F2
:10638000FF3F05DCFFE71498C0F13000149003E0F4
:10639000149830301490FFE71598169014980499CB
:1063A0004A1C04920870059801300590D8E7FFE771
:1063B00005981B90FFE71B981CB080BD00000000F3
:1063C000B0B598B084461C98CDF858C01591149279
:1063D00013938DF84B0000200190039016990291C1
:1063E00002994A1C02920870119010900F900E9022
:1063F0000D900C900B900A900990089007900690D1
:10640000059004901498002863D0FFE71599086858
:1064100049681191109010981199084348B9FFE705
:106420000299302008700398013003900398179068
:10643000B9E0FFE7109811990843002848D0FFE71A
:1064400010981199139AD317FCF73FFA0F910E90F9
:1064500010991198DDF838E00F9ADDF84CC04FEA3A
:10646000EC74AEFB0C350EFB045E02FB0CE2C91AA9
:1064700090410C910D900D98B0F1FF3F12DCFFE7B9
:106480000C980D990791069006980799C043C94347
:106490000591049004990598313140F100000C9168
:1064A0000D9007E00C990D98303140F100000C91EF
:1064B0000D90FFE70E980F99119110909DF8300004
:1064C00002994A1C02920870039801300390B1E7C8
:1064D00066E01599086849680B910A900A980B992B
:1064E000084348B9FFE7029930200870039801304B
:1064F00003900398179056E0FFE70A980B9908431A
:1065000000284CD0FFE70A980B99139AD317FCF791
:10651000ABF9099108900A990B98DDF820E0099AE7
:10652000DDF84CC04FEAEC74AEFB0C350EFB045E9C
:1065300002FB0CE2C91A9041069107900698079950
:10654000D0F109004FF00000884108D3FFE7069919
:106550000798303140F100000691079011E006994C
:1065600007989DF84B20D3076122002B18BF4122CA
:10657000891840F100000A3960F100000691079087
:10658000FFE7089809990B910A909DF81800029965
:106590004A1C02920870039801300390ADE7FFE7B0
:1065A00003981790FFE7179818B0B0BD00000000DF
:1065B00083B080B583B007930692059102900020C6
:1065C000009005A801900298019900F065FD0090E7
:1065D000009803B0BDE8804003B0704700000000A1
:1065E00080B5ACB02B922A90299100201E901D906E
:1065F0001B908DF85A001190109029982890FFE771
:10660000289890F9000010B9FFE700F0FFBC289827
:1066100000788DF89F009DF99F0025280BD0FFE79B
:106620002A999DF99F0088471B9801301B90289854
:1066300001302890E4E701208DF85B0000201590E0
:106640008DF87300FFE79DF87300C007002837D16D
:10665000FFE72898411C289190F901002038014655
:106660000A91102824D80A99DFE801F01322221D8C
:10667000222222222222220E2209222218001598EA
:1066800040F0010015901AE0159840F002001590B6
:1066900015E0159840F00400159010E0159840F0B2
:1066A000080015900BE0159840F01000159006E0DA
:1066B00028980138289001208DF87300FFE7C2E781
:1066C00000201A908DF87300FFE79DF87300C00753
:1066D00070BBFFE72898411C289140788DF89F00F7
:1066E0009DF99F0030280FDBFFE79DF99F003928B7
:1066F0000ADCFFE71A9800EB80019DF99F0000EB90
:10670000410030381A9012E09DF99F002A2806D1E6
:10671000FFE72B98011D2B9100681A9006E028983E
:106720000138289001208DF87300FFE7FFE7CCE7E0
:106730000620199000208DF83F002898411C2891D0
:1067400090F901002E283FD1FFE7002019908DF825
:106750007300FFE79DF87300C007A0BBFFE7289810
:10676000411C289140788DF89F009DF99F003028AA
:1067700012DBFFE79DF99F0039280DDCFFE7199830
:1067800000EB80019DF99F0000EB4100303819902B
:1067900001208DF83F0015E09DF99F002A2809D1BE
:1067A000FFE72B98011D2B910068199001208DF8AF
:1067B0003F0006E028980138289001208DF87300EA
:1067C000FFE7FFE7C6E703E0289801382890FFE7D6
:1067D0002898411C289190F90100014609916828E8
:1067E00004D0FFE709986C2816D02BE02898411CAC
:1067F000289190F90100682808D0FFE7159840F02B
:106800004000159028980138289004E0159840F031
:1068100020001590FFE719E02898411C289190F975
:1068200001006C2808D0FFE7159840F08000159013
:1068300028980138289004E0159840F4807015904D
:10684000FFE703E0289801382890FFE72898411CCB
:10685000289140788DF89F009DF99F0064282ED0E4
:10686000FFE79DF99F00692829D0FFE79DF99F0068
:10687000662824D0FFE79DF99F0046281FD0FFE738
:106880009DF99F0078281AD0FFE79DF99F005828AE
:1068900015D0FFE79DF99F006F2810D0FFE79DF905
:1068A0009F0062280BD0FFE79DF99F00702806D05B
:1068B000FFE79DF99F00752840F01083FFE79DF9E1
:1068C0009F00642806D0FFE79DF99F00692840F0EB
:1068D000BE80FFE79DF85500C00760B1FFE72B9829
:1068E000073020F0070101F108002B900868496883
:1068F0001391129016E09DF854000006002808D568
:10690000FFE72B98011D2B910168C8171291139076
:1069100007E02B98011D2B910168C8171291139065
:10692000FFE7FFE79DF85B0000F0010069460860A3
:106930000DF17E00089012A901220A23FFF740FD05
:10694000014608981D911D9908441E901398B0F1B6
:10695000FF3F07DCFFE72D208DF853001D98013025
:106960001D901FE09DF854008007002807D5FFE721
:106970002B208DF853001D9801301D9011E09DF8DB
:1069800054004007002807D5FFE720208DF853006A
:106990001D9801301D9003E000208DF85300FFE7A3
:1069A000FFE7FFE700208DF852009DF85400000734
:1069B00000281BD5FFE79DF9530040B1FFE72A9956
:1069C0009DF9530088471B9801301B90FFE7012079
:1069D0008DF852001D991A9A2A986B46186030203B
:1069E0001BAB00F019FB1A981D901EE09DF8540097
:1069F000C007C8B9FFE71D991A9A2A986B46186014
:106A000020201BAB00F008FB9DF9530040B1FFE7CD
:106A10002A999DF9530088471B9801301B90FFE786
:106A200001208DF85200FFE7FFE79DF85200C007F4
:106A300060B9FFE79DF9530040B1FFE72A999DF93E
:106A4000530088471B9801301B90FFE7FFE79DF933
:106A50009F00662806D0FFE79DF99F00462840F07A
:106A60009E80FFE72B98073020F0070000F1080117
:106A70002B9190ED000B8DED0C0B199B0DF17E0011
:106A800007900CA90A22FFF76FFB014607981D919A
:106A90001D9908441E909DED0C0BB5EE400BF1EED8
:106AA00010FA07DAFFE72D208DF853001D9801300A
:106AB0001D901FE09DF854008007002807D5FFE7D0
:106AC0002B208DF853001D9801301D9011E09DF88A
:106AD00054004007002807D5FFE720208DF8530019
:106AE0001D9801301D9003E000208DF85300FFE752
:106AF000FFE7FFE700208DF852009DF854000007E3
:106B000000281BD5FFE79DF9530040B1FFE72A9904
:106B10009DF9530088471B9801301B90FFE7012027
:106B20008DF852001D991A9A2A986B4618603020E9
:106B30001BAB00F071FA1A981D901EE09DF85400EE
:106B4000C007C8B9FFE71D991A9A2A986B461860C2
:106B500020201BAB00F060FA9DF9530040B1FFE725
:106B60002A999DF9530088471B9801301B90FFE735
:106B700001208DF85200FFE7FFE79DF85200C007A3
:106B800060B9FFE79DF9530040B1FFE72A999DF9ED
:106B9000530088471B9801301B90FFE7FFE79DF9E2
:106BA0009F00582806D0FFE79DF99F00782840F005
:106BB000C880FFE79DF99F00782804D1FFE70020F7
:106BC0008DF85B00FFE79DF85500C00760B1FFE757
:106BD0002B98073020F0070101F108002B9008687E
:106BE00049681191109016E09DF8540000060028A5
:106BF00008D5FFE72B98011D2B910068002111910A
:106C0000109007E02B98011D2B9100680021119135
:106C10001090FFE7FFE79DF85B0000F00100694678
:106C200008600DF17E00059010A900220692102345
:106C3000FFF7C6FB0599024606981D921D9A11445E
:106C40001E918DF852009DF854000007002825D5AC
:106C5000FFE79DF85400C006002813D5FFE72A99E6
:106C6000302088472A999DF85B00C2077820002AC7
:106C700018BF582088471B9802301B9001208DF8C0
:106C80005200FFE71D991A9A2A986B461860302027
:106C90001BAB00F0C1F91A981D9033E09DF8540029
:106CA000C00600282DD4FFE79DF85400C006002838
:106CB00004D5FFE71D9802301D90FFE71D991A9A31
:106CC0002A986B46186020201BAB00F0A5F99DF8B0
:106CD0005400C006002813D5FFE72A9930208847C2
:106CE0002A999DF85B00C2077820002A18BF582017
:106CF00088471B9802301B9001208DF85200FFE757
:106D0000FFE7FFE79DF85400C006002818D5FFE70D
:106D10009DF85200C00798B9FFE72A9930208847AC
:106D20002A999DF85B00C2077820002A18BF5820D6
:106D300088471B9802301B901D9802301D90FFE77A
:106D4000FFE79DF99F006F2810D0FFE79DF99F0096
:106D500062280BD0FFE79DF99F00702806D0FFE75F
:106D60009DF99F00752840F09480FFE79DF99F00F2
:106D7000702808D1FFE72B98011D2B9100680B901C
:106D80000B98109028E09DF85500C00760B1FFE710
:106D90002B98073020F0070101F108002B900868BC
:106DA00049681191109016E09DF8540000060028E3
:106DB00008D5FFE72B98011D2B9100680021119148
:106DC000109007E02B98011D2B9100680021119174
:106DD0001090FFE7FFE7FFE79DF99F00623801464B
:106DE000049113281CD80499DFE801F00E1A1A1A2E
:106DF0001A1A1A1A1A1A1A1A1A0A121A1A1A1A160F
:106E000008208DF85A000CE002208DF85A0008E0A6
:106E100010208DF85A0004E00A208DF85A0000E096
:106E2000FFE79DF85A309DF85B0000F001006946CD
:106E300008600DF17E00039010A90022FFF7C0FA50
:106E4000014603981D911D9908441E909DF8540019
:106E5000000700280CD5FFE71D991A9A2A986B465F
:106E6000186030201BAB00F0D7F81A981D900FE087
:106E70009DF85400C00750B9FFE71D991A9A2A9847
:106E80006B46186020201BAB00F0C6F8FFE7FFE759
:106E9000FFE71E9890B1FFE7FFE71E9890F900000A
:106EA00058B1FFE72A991E98421E1E9290F90000E1
:106EB00088471B9801301B90EFE7FFE79DF85400CF
:106EC000C00750B1FFE71D991A9A2A986B461860BF
:106ED00020201BAB00F0A0F8FFE792E09DF99F0097
:106EE00063280CD1FFE72B98011D2B9100681790A8
:106EF0002A99179888471B9801301B9080E09DF9CC
:106F00009F00732873D1FFE72B98011D2B91006818
:106F100018901898002869D0FFE79DF83F00C00737
:106F200018B1FFE719981D9004E01898FBF726FDAB
:106F30001D90FFE79DF85400C00750B9FFE71D9969
:106F40001A9A2A986B46186020201BAB00F064F850
:106F5000FFE79DF83F00C00730B3FFE7FFE7189851
:106F600090F900100020029039B1FFE71D99002030
:106F70000029C8BF01200290FFE70298C00770B146
:106F8000FFE72A991898421C189290F90000884748
:106F90001B9801301B901D9801381D90DFE7199850
:106FA0001D99401A1D9011E0FFE7189890F9000014
:106FB00058B1FFE72A991898421C189290F90000DE
:106FC00088471B9801301B90EFE7FFE79DF85400BE
:106FD000C00750B1FFE71D991A9A2A986B461860AE
:106FE00020201BAB00F018F8FFE7FFE707E02A9925
:106FF0009DF99F0088471B9801301B90FFE7FFE732
:10700000FFE7289801302890FFF7FABA1B982CB0B8
:1070100080BD00000000000080B586B0DDF820C013
:107020008DF8170004910392029304980190FFE7F2
:107030000198039988420DDAFFE708999DF9170036
:1070400088470299086801300860FFE7019801301D
:107050000190EDE706B080BD80B584B0029044F2A7
:107060001400C2F20100007C20B9FFE74FF0FF30AE
:1070700003900BE044F21400C2F20100836802A9FD
:1070800001220192984701980390FFE7039804B00A
:1070900080BD00000000000080B584B00291019026
:1070A0000020009044F21400C2F20100007C20B9DC
:1070B000FFE74FF0FF3003900BE00199029A44F68E
:1070C000F130C8F20000FFF78BFA009000980390AF
:1070D000FFE7039804B080BDFFE7FEE70000000073
:1070E00083B0EFF31080019001980090EFF31080CF
:1070F00072B60290009803B07047000000000000D4
:1071000084B00390029102981F2801D8FFE70BE09A
:1071100044F20F40C8F2010044F25241C8F20101AA
:1071200040F2013206F078FB0020019003980299AA
:1071300000EB411041F21C01405AC1B2019840EAF3
:10714000D11001900398C06A0299C84000F0010173
:10715000019840EA410001900398406A0299C840B2
:1071600000F00101019840EA81000190019804B00B
:10717000704700000000000080B588B007900798B5
:1071800008B1FFE70BE044F24340C8F2010044F2CB
:107190005241C8F201014FF4AF6206F03DFB07997E
:1071A000087C8968C87707998868097C00EB4110DA
:1071B00041F21C01405AC0B2C0098DF81B0007986B
:1071C000C06880B9FFE70798006858B1FFE70798E3
:1071D000D0F800C041689DF81B2002F00102002396
:1071E000E047FFE7A8E007998868097C00EB4110B9
:1071F00041F218014058059007998868097C00EB16
:10720000411041F21C01405AC0F300108DF80A00F1
:107210000798C1680598401A0590059840090490A0
:107220009DF81B00C00720B1FFE704988DF80B0004
:1072300010E0049828B1FFE79DF810000138019094
:1072400004E00798007D01380190FFE701988DF870
:107250000B00FFE79DF80B000799497C88421DD180
:10726000FFE70798C07C8DF809000798007D8DF82E
:1072700008009DF909009DF90810884205D0FFE734
:107280009DF80A00C00728B9FFE7079890F9130096
:10729000039002E000200390FFE71DE09DF80B0043
:1072A000079991F91110401A03900398B0F1FF3F2C
:1072B00007DCFFE7079890F914100398084403903F
:1072C000FFE79DF81B00C00728B1FFE70799087C7E
:1072D00089680877FFE7FFE79DF80B000799487476
:1072E000039A0799C87C801AC8740798006858B137
:1072F000FFE70798D0F800C04168039B9DF81B206A
:1073000002F00102E047FFE79DF81B00C00790B1C3
:10731000FFE707998868097C00EB411041F21C01E6
:10732000405AC006002805D5FFE70799087C896800
:107330000877FFE7FFE7FFE708B080BD0000000027
:1073400080B544F20000C4F22D0000F0E9F8BFF36C
:107350004F8F80BD0000000080B544F20000C4F2F1
:107360002D0000F011F8BFF34F8F80BD000000002A
:1073700080B548F20000C4F22D0000F0D1F8BFF350
:107380004F8F80BD0000000080B584B0039003984B
:1073900040680290039800F093F801900398816888
:1073A0000298084002909DF80B0010F00C0F1AD0C4
:1073B000FFE7019944F24800C2F2010050F82100B1
:1073C00080B1FFE7019B44F24800C2F2010050F88F
:1073D0002320039843F6F871C2F2010151F82310FB
:1073E0009047FFE7FFE79DF80B008007D0B1FFE76C
:1073F000019944F23800C2F2010050F8210080B136
:10740000FFE7019B44F23800C2F2010050F823204C
:10741000039843F6F871C2F2010151F82310904726
:10742000FFE7FFE7029810F4C03F19D0FFE701998A
:1074300044F24000C2F2010050F8210080B1FFE7A1
